S00E00005573624D73632E73726563C9
S11300000C948D000C94B5000C94B5000C94B500C0
S11300100C94B5000C94B5000C94B5000C94B50088
S11300200C94B5000C94B5000C941B010C946B0655
S11300300C94B5000C94B5000C94B5000C94B50068
S11300400C94B5000C94B5000C94B5000C94B50058
S11300500C94B5000C94B5000C94B5000C94B50048
S11300600C94B5000C94B5000C94B5000C94B50038
S11300700C94B5000C94B5000C94B5000C94B50028
S11300800C94B5000C94B5000C94B5000C94B50018
S11300900C94B5000C94B5000C94B5000C94B50008
S11300A00C94B5000C94B5000C94B500C104300652
S11300B030060706300630063006300630063006B5
S11300C0300630063006300630063006300630067C
S11300D0E4033006300630063006300630063006BB
S11300E098043006300630065C04300630063006CC
S11300F030066F043006330430063006DC04300664
S11301006505BF06CD062F07D9062F07E506EE06BF
S11301102F07F406F9066107970711241FBECFEFD6
S1130120DAE0DEBFCDBF13E0A0E0B1E0E6E7F2E144
S113013002C005900D92A431B107D9F723E0A4E1E0
S1130140B3E001C01D92A932B207E1F710E0CDE897
S1130150D0E004C02197FE010E943309CB38D107B7
S1130160C9F70E9465070C9439090C94000084B106
S1130170866184B985B1846185B92998089598E028
S1130180882314F42A9A01C02A98299A0000880F17
S113019029989150A9F7089598E080E0299A880F4A
S11301A01B9981600000299800009150B9F70895C7
S11301B0F894E7EDF0E080818160808380EA8093A9
S11301C0D80089B5806189BD89B5826089BD09B4CB
S11301D000FEFDCF8FE99FE00197F1F700C000001A
S11301E0E8EDF0E080818F7C80618083E0EEF0E0D8
S11301F08081807F8083E1EEF0E080818E7E808349
S11302008DE08093E200789481E008958091E80085
S113021083FB882780F908958093E90081E0809327
S1130220EB006093EC004093ED008091EE00881F9A
S11302308827881F08951F920F920FB60F921124DA
S11302402F933F934F935F936F937F938F939F93DA
S1130250AF93BF93EF93FF93E1EEF0E09081808141
S1130260837F808393FF08C042E360E080E00E94C4
S11302700C0188E08093F000FF91EF91BF91AF9162
S11302809F918F917F916F915F914F913F912F91AA
S11302900F900FBE0F901F901895FC019FEF960FC3
S11302A0662341F0A1EFB0E08C91808391503196A8
S11302B09F3FD1F70895E8EEF0E0808180FFFDCF05
S11302C00895E8EEF0E0808182FFFDCF0895E8EE26
S11302D0F0E080818570E9F38091E80082FB882753
S11302E080F991E0892708951092E900109217038C
S11302F01092160390931503809314030895CF93DB
S11303004091160350911703209114033091150363
S1130310421753079CF4C82F0E9467018823C1F039
S1130320C093F100809116039091170301968F7387
S11303309927892B19F48EEF8093E8008091160396
S1130340909117030196909317038093160381E00D
S1130350CF9108950F931F93CF93DF9320911603AA
S113036030911703809114039091150328173907CE
S11303706CF48B01EB01040F151FC017D10741F07A
S113038089910E947F018111F8CF03C081E001C0EF
S113039081E0DF91CF911F910F910895EF92FF9229
S11303A00F931F93CF93DF93EC011B818E819F8169
S11303B00E947401123071F01330E1F0113009F031
S11303C055C042E150E06BE072E081E00E94AA0176
S11303D081E051C049E050E06DE172E080E00E94AC
S11303E0AA0141E650E066E272E080E00E94AA01C0
S11303F081E041C0CA81CC2381F1C430C8F520E139
S1130400C29FF0011124E953FE4FD0818D2F880F34
S11304108E5F0E947F0183E00E947F01DD2351F102
S113042030E1C39FC00111248C0108531E4FD150E9
S11304308D0F911DFC01E753FE4F7F01F80181915F
S11304408F010E947F01C82F80E00E947F018C23CE
S113045091F00E151F0591F70EC044E050E067E0DF
S113046072E080E00E94AA0181E005C080E003C040
S113047080E001C081E0DF91CF911F910F91FF9047
S1130480EF900895AF92BF92DF92EF92FF920F9395
S11304901F93CF93DF938C01EB011C161D062CF5E3
S11304A00F2EF8EEAF2EB12CF02D0F2EFBEFDF2E1A
S11304B0F02DC134D1053CF0C054D1096894EE2428
S11304C0E6F8F12C01C07E010E94670181110FC082
S11304D06E2DC8010E944D01F501D0820E0D1F1D25
S11304E01C161D0634F381E003C081E001C080E0E6
S11304F0DF91CF911F910F91FF90EF90DF90BF900C
S1130500AF900895FC012481211164C09181808100
S1130510813A59F4913209F063C047E050E06EE14A
S113052071E080E00E94AA015BC0813209F054C0EE
S1130530903241F467E070E08EE191E00E94420263
S113054081E00895933261F4838190E0982F8827A5
S11305502281822B909319038093180381E00895DC
S11305609232E1F58281EEE1F1E08783808191812D
S1130570A281B38180349843A105B105D1F580915E
S1130580250180FF2FC035C08091250180FF3FC029
S113059080911E0190911F01A0912001B091210131
S11305A0803B9440A105B10509F064C08091250108
S11305B080FF46C05FC0A895E0E6F0E080818861D6
S11305C0808380911A0380831092FF0A1092FE0A9E
S11305D081E0089580E0089580E0089581E0089521
S11305E080E00895269A95B180E4892785B981E051
S11305F0089580911E0190911F01A0912001B09156
S11306002101803B9440A105B10511F6BDCF87E7D8
S113061097E79093FF0A8093FE0A909301088093D2
S113062000088091600080931A039BE088E10FB674
S1130630F894A895809360000FBE90936000A8CFB3
S113064087E797E79093FF0A8093FE0A9093010847
S1130650809300088091600080931A039BE088E1F6
S11306600FB6F894A895809360000FBE9093600035
S113067081E008958091FE0A9091FF0A8737974799
S113068009F499CF81E00895FF920F931F93CF93BC
S1130690DF938093E90030E0A1EFB0E0C8EED0E052
S11306A01AE3FF24F39400E01416150614F0332320
S11306B061F1403451052CF5842F2FEF240F44278A
S11306C0882359F0FB01822F91919C938150E0F78C
S11306D0822F90E00196680F791F332319F0188355
S11306E0302FE2CF888185FD07C018833F2D411547
S11306F05105D1F2302FD8CF41155105A9F61883F1
S1130700D3CF405451092FE3DDCF81E0DF91CF9166
S11307101F910F91FF9008954F925F926F927F9275
S11307208F929F92AF92BF92CF92DF92EF92FF92FD
S11307300F931F93CF93DF93CDB7DEB7CC52D24044
S11307400FB6F894DEBF0FBECDBFFE01B0968DE0AC
S1130750DF011D928A95E9F785E593E5A2E4B3E507
S113076088A399A3AAA3BBA384E00E9424096FE1F0
S1130770CE0101960E944D0188890E940F098BE6E3
S11307808093E80089819A81AB81BC81853593454A
S1130790A244B34429F086E291E00E94F90883C29E
S11307A08D819E81AF81B8858CA39DA3AEA3BFA389
S11307B0E8898E2F90E08B32910508F051C2FC013C
S11307C0EA5AFF4F0C9433098989811129C08AE2BE
S11307D091E00E94F90885E08093E9000E945B01A2
S11307E04C8950E06CE971E085E00E9444032C8957
S11307F089859A85AB85BC85821B9109A109B109BC
S113080088A799A7AAA7BBA71CA60E945B014DE0D5
S113081050E0BE01605E7F4F85E00E94440343C206
S113082085E08093E90089859A85AB85BC8588A796
S113083099A7AAA7BBA781E08CA70E945B014DE002
S113084050E0BE01605E7F4F85E00E9444031CA619
S11308500E945B014DE050E0BE01605E7F4F85E089
S11308600E94440320C28FE291E00E94F90885E0CF
S11308708093E9000E945B0148E050E064E071E08D
S113088085E00E9444032C8989859A85AB85BC85C3
S1130890821B9109A109B10988A799A7AAA7BBA797
S11308A01CA60E945B014DE050E0BE01605E7F4FDC
S11308B085E00E944403F7C185E08093E90018A60F
S11308C019A61AA61BA61CA60E945B014DE050E0C7
S11308D0BE01605E7F4F85E00E944403E4C184E36F
S11308E091E00E94F90885E08093E9000E945B0191
S11308F04CE050E060E971E085E00E9444032C89FB
S113090089859A85AB85BC85821B9109A109B109AA
S113091088A799A7AAA7BBA71CA60E945B014DE0C4
S113092050E0BE01605E7F4F85E00E944403BBC17E
S113093089E391E00E94F90885E08093E9000E9430
S11309405B0144E050E060E071E085E00E94440314
S11309502C8989859A85AB85BC85821B9109A1095F
S1130960B10988A799A7AAA7BBA71CA60E945B01E7
S11309704DE050E0BE01605E7F4F85E00E9444037D
S113098092C18EE391E00E94F90885E08093E9002A
S113099089859A85AB85BC8588A799A7AAA7BBA793
S11309A01CA60E945B014DE050E0BE01605E7F4FDB
S11309B085E00E94440377C183E491E00E94F90832
S11309C085E08093E9008C88912C982C88248D896B
S11309D0882A092C000CAA08BB084F88512C542CD7
S11309E04424888D482A141415040CF04EC0052C98
S11309F0000C66087708480C591C6A1C7B1C7E0195
S1130A00F3EDEF1AFDEFFF0A20E0B501A40181E147
S1130A100E949B07811147C12C9800E010E10E94BD
S1130A20CC008E3F29F001501109C9F72C9A3BC123
S1130A306E012DE2C20ED11C86010E94CC00D801A9
S1130A408D938D01AE15BF05C1F70E94CC000E94A5
S1130A50CC000E94CC002C9A0E945B0140E450E040
S1130A60B60185E00E944403B0E4CB0ED11CEC1423
S1130A70FD0491F7EFEF8E1A9E0AAE0ABE0A8414A3
S1130A809504A604B70409F0BFCF8AE38093E80075
S1130A902C8989859A85AB85BC85821B9109A1091E
S1130AA0B10988A799A7AAA7BBA71CA60E945B01A6
S1130AB04DE050E0BE01605E7F4F85E00E9444033C
S1130AC088E491E00E94F908EEC08DE491E00E9470
S1130AD0F90884E08093E9008C88912C982C882470
S1130AE08D89882A092C000CAA08BB0882E591E0AC
S1130AF00E94F9088E01035D1F4F7E01F3EDEF1A8A
S1130B00FDEFFF0A680188E591E00E94F9080E9460
S1130B10610160E4C6010E944D018EE591E00E94EE
S1130B20F90820E4C20ED11CEC14FD0461F720E0A6
S1130B30B501A40188E10E949B07882329F084E67B
S1130B4091E00E94F908AFC02C988EEF0E94BF007C
S1130B50D8018D918D010E94BF00E016F106C1F706
S1130B608FEF0E94BF008FEF0E94BF000E94CC0055
S1130B708F71853031F02C9A89E691E00E94F90852
S1130B8092C000E010E00E94CC00811109C00F5F08
S1130B901F4FC9F72C9A8EE691E00E94F90883C092
S1130BA02C9A8FEF0E94BF002C9801C08C010E94E8
S1130BB0CC0081110BC0C80101960F3F1F4FB1F744
S1130BC02C9A83E791E00E94F9086DC02C9A85E085
S1130BD08093E9002C8989859A85AB85BC85821B25
S1130BE09109A109B10988A799A7AAA7BBA71CA61F
S1130BF00E945B014DE050E0BE01605E7F4F85E0E6
S1130C000E94440388E791E00E94F9084CC08DE7F4
S1130C1091E00E94F90885E08093E9000E945B015D
S1130C2042E150E06CE071E085E00E9444032C89CD
S1130C3089859A85AB85BC85821B9109A109B10977
S1130C4088A799A7AAA7BBA71CA60E945B014DE091
S1130C5050E0BE01605E7F4F85E00E94440323C0E4
S1130C6082E891E00E94F90889859A85AB85BC8564
S1130C7088A799A7AAA7BBA781E08CA70E945B01BC
S1130C804DE050E0BE01605E7F4F85E00E9444036A
S1130C901CA60E945B014DE050E0BE01605E7F4FE8
S1130CA085E00E944403C45DDD4F0FB6F894DEBFB7
S1130CB00FBECDBFDF91CF911F910F91FF90EF90A9
S1130CC0DF90CF90BF90AF909F908F907F906F9068
S1130CD05F904F9008951F920F920FB60F921124B8
S1130CE0EF92FF920F931F932F933F934F935F9332
S1130CF06F937F938F939F93AF93BF93EF93FF93E0
S1130D00CF93DF93CDB7DEB72897DEBFCDBF84E0A6
S1130D108093E9008091E80082FF03C00E948C0365
S1130D20A8C01092E9000E940601882309F4A1C01A
S1130D3068E0CE0101960E944D0182EF8093E800A5
S1130D40198111231CF40E945B0103C08EEF809370
S1130D50E800812F807609F078C04B812C81842FA4
S1130D6090E0BC01722BEA818E2F90E08A309105CD
S1130D7008F075C0FC01EF57FF4F0C94330910388D
S1130D8039F480911E03E1EFF0E08083108268C0A3
S1130D90E1EFF0E01082108263C0111161C0613094
S1130DA0710509F05DC0EBE1F3E080818D7F808304
S1130DB057C0111155C06130710509F051C0EBE104
S1130DC0F3E08081826080834BC0E8EEF0E08081B4
S1130DD080FFFDCF40684093E30042C0CE010196FE
S1130DE00E94CE01082F3CC080911D038093F10026
S1130DF037C01F71B9F561EC11E00F2EF0EFEF2E43
S1130E00F12CF02D42E3812F0E940C01882379F00C
S1130E10F70180818460808387E891E00E94F9086B
S1130E20812F0E940F098AE891E00E94F9081F5F50
S1130E30E12FF0E0E054FE4F60816111E3CF1092A6
S1130E40E90081E080931D030BC08F8198850E9487
S1130E507401CE0101960E948202082F01C000E0B5
S1130E60011104C081E28093EB0003C08EEF8093F4
S1130E70E80028960FB6F894DEBF0FBECDBFDF9111
S1130E80CF91FF91EF91BF91AF919F918F917F91FE
S1130E906F915F914F913F912F911F910F91FF900F
S1130EA0EF900F900FBE0F901F9018952091250181
S1130EB0222329F0AB01BC0183E00E94440381E0BA
S1130EC0089581E080931D0308950E94DD0887E85A
S1130ED092E00E94F9088AEE0E940F0988E291E0EC
S1130EE00E94F9080E94B7000E94D8000E940308DB
S1130EF0C82F81E992E00E94F9088C2F0E940F0903
S1130F008C2F0E940F0988E291E00E94F9082FEFCC
S1130F1083ED90E3215080409040E1F700C0000051
S1130F206CE070E08AE992E00E945607F0CF81E01D
S1130F30809321030895BF92CF92DF92EF92FF92A4
S1130F400F931F93CF93DF93182F6A017B01B22E67
S1130F508FEE810F823040F088EE810F823020F0D6
S1130F6080EE810F823048F40B2EB9E0CC0CDD1CEE
S1130F70EE1CFF1CBA95D1F7B02D2C98812F8064FC
S1130F800E94BF008F2D0E94BF008E2D0E94BF00C3
S1130F908D2D0E94BF008C2D0E94BF00183021F4BB
S1130FA087E80E94BF0003C085E90E94BF00C0E03B
S1130FB00E94CC00D82F8F3F19F4C150C9F718C034
S1130FC0183011F01A3381F409E213E00F2EF5E220
S1130FD0EF2EF3E0FF2EF02D0E94CC00F801829357
S1130FE08F01EE15FF05C1F70E94CC00B1102C9AB9
S1130FF08D2FDF91CF911F910F91FF90EF90DF9094
S1131000CF90BF9008959F92AF92BF92CF92DF92FC
S1131010EF92FF920F931F93CF93DF9389EF90E0AA
S11310200197F1F700C000002C9A109223031AE0F4
S11310308FEF0E94BF001150D9F72C9821E040E0B7
S113104050E0BA0180E00E949B07C0E2D0E00AC0F1
S113105021E040E050E0BA0180E00E949B07219724
S113106009F48CC08130A1F78FEF0E94BF008FEF8D
S11310700E94BF0082E080932403C0E0D1E021E01D
S11310804AEA51E060E070E088E00E949B0782FF3A
S113109003C01092240307C0219719F4109224036B
S11310A002C0813061F7EE24EA94F12C0F2EF3E2B2
S11310B0CF2EF3E0DF2EF02D912CA12CB12C00E4E7
S11310C021E040E050E0BA0187E30E949B07CEEFA5
S11310D0D0E00AC021E040E050E0BA0187E30E947A
S11310E09B07219709F44CC08130A1F7F601818157
S11310F0882329F0492D5A2D6B2D702F04C040E010
S113110050E060E070E021E089E20E949B0782FFEA
S113111010C021E040E050E0BA0181E00E949B074A
S11311202EEF30E003C02150310961F18111FBCF72
S113113006C0F1E0EF1AF10839F18111C1CF8091B5
S113114023038230A9F422C021E040E050E0BA0138
S11311508AE30E949B07219749F08111F5CF809182
S1131160280386FD05C01092240302C0811118C013
S1131170E3E2F3E080818068808312C011E810C04C
S113118013E80EC012E80CC012E80AC021E040E0E7
S113119050E0BA018AE30E949B07CEEFD0E0DDCF96
S11311A0812FDF91CF911F910F91FF90EF90DF90EE
S11311B0CF90BF90AF909F90089584B1806E84B912
S11311C085B1806A85B92E9808952F9898E0882370
S11311D014F42D9A01C02D982E9A00000000880F57
S11311E02E980000915099F7000085B1806A85B966
S11311F008950F931F93CF93DF93EC018C0101505B
S11312001F4F8881882331F021960E94E508C0177A
S1131210D107B9F7DF91CF911F910F910895CF9323
S1131220C82FE82FE295EF70F0E0EE5FFC4F80816D
S11312300E94E508CF70EC2FF0E0EE5FFC4F808158
S11312400E94E508CF910895CF93C82F87EF92E0CD
S11312500E94F9088C2F0E940F098FEF92E00E94E0
S1131260F908CF910895EE0FFF1F0590F491E02D3A
S10912700994F894FFCF7D
S113127603000000003FFFFF0000020070000500AD
S1131286000000000000000000000000000000E173
S113129600000000000025323B00403131300040A0
S11312A63132300040313630004031343000403184
S11312B63530004032303000403232320040333074
S11312C63000403330303100403330303200403368
S11312D63030330040333034004033303100403353
S11312E6303200403330330040333333004031333F
S11312F630004034303400455000696E69743B0058
S11313060000000800F23800020002000080020219
S11313161F00000041546D6567612030562D5553FA
S1131326422053442D416461707465723030303804
S113133600C18081808100030000000000000000DD
S113134600000000000000056461726D6100000089
S113135600000000000000047465737400000000BF
S113136600000000000000034D534400000000008C
S1131376000000000000000403090412010002EF4B
S11313860201401F1FF1F100010102030109026A73
S113139600030100A0FA080B00020202000009047F
S11313A600000102020000052400100105240101C9
S11313B60104240206052406000107058103100022
S11313C64009040100020A00000007050202400069
S11313D60007058302400000080B020108065000BE
S11313E60904020002080650000705040240000032
S11313F6070585024000005B4156524442475D2D75
S113140600534443415244533A0048456C6C6F20A0
S1131416576F726C640053455455502800646576C2
S11314262D3E686F73743B2000686F73742D3E64A1
S113143665763B200056454E444F523B2000494EAC
S1131446544552464143453B20002E2E2E3B200058
S1131456525B005D3B2000496E6465785B006C65F9
S11314666E5B005D20290026492D5553425B005DC5
S11314763B00303132333435363738394142434410
S107148645460000D3
S9030000FC
