S00E00005573624D73632E73726563C9
S11300000C948E000C94B6000C94B6000C94B600BC
S11300100C94B6000C94B6000C94B6000C94B60084
S11300200C94B6000C94B6000C941C010C946C0651
S11300300C94B6000C94B6000C94B6000C94B60064
S11300400C94B6000C94B6000C94B6000C94B60054
S11300500C94B6000C94B6000C94B6000C94B60044
S11300600C94B6000C94B6000C94B6000C94B60034
S11300700C94B6000C94B6000C94B6000C94B60024
S11300800C94B6000C94B6000C94B6000C94B60014
S11300900C94B6000C94B6000C94B6000C94B60004
S11300A00C94B6000C94B6000C94B600C20431064D
S11300B031060806310631063106310631063106AD
S11300C03106310631063106310631063106310674
S11300D0E5033106310631063106310631063106B3
S11300E099043106310631065D04310631063106C4
S11300F0310670043106340431063106DD0431065C
S11301006605C006CE063007DA063007E606EF06B7
S11301103007F506FA069B07C207550911241FBECE
S1130120CFEFDAE0DEBFCDBF13E0A0E0B1E0EEE652
S1130130F3E102C005900D92A433B107D9F723E08F
S1130140A4E3B3E001C01D92A934B207E1F710E0C3
S1130150CEE8D0E004C02197FE010E94AF09CB385D
S1130160D107C9F70E949F070C94B5090C940000AD
S113017084B1866184B985B1846185B9299808956B
S113018098E0882314F42A9A01C02A98299A000036
S1130190880F29989150A9F7089598E080E0299A4A
S11301A0880F1B9981600000299800009150B9F7CD
S11301B00895F894E7EDF0E080818160808380EA1F
S11301C08093D80089B5806189BD89B5826089BD75
S11301D009B400FEFDCF8FE99FE00197F1F700C05D
S11301E00000E8EDF0E080818F7C80618083E0EEA8
S11301F0F0E08081807F8083E1EEF0E080818E7E7C
S113020080838DE08093E200789481E0089580916A
S1130210E80083FB882780F908958093E90081E052
S11302208093EB006093EC004093ED008091EE002E
S1130230881F8827881F08951F920F920FB60F9268
S113024011242F933F934F935F936F937F938F93D7
S11302509F93AF93BF93EF93FF93E1EEF0E0908110
S11302608081837F808393FF08C042E360E080E065
S11302700E940D0188E08093F000FF91EF91BF91FF
S1130280AF919F918F917F916F915F914F913F912A
S11302902F910F900FBE0F901F901895FC019FEFA8
S11302A0960F662341F0A1EFB0E08C9180839150CA
S11302B031969F3FD1F70895E8EEF0E0808180FF0A
S11302C0FDCF0895E8EEF0E0808182FFFDCF089530
S11302D0E8EEF0E080818570E9F38091E80082FB2C
S11302E0882780F991E0892708951092E9001092F7
S11302F037031092360390933503809334030895A3
S1130300CF934091360350913703209134033091B9
S11303103503421753079CF4C82F0E9468018823B1
S1130320C1F0C093F1008091360390913703019698
S11303308F739927892B19F48EEF8093E8008091AD
S113034036039091370301969093370380933603D5
S113035081E0CF9108950F931F93CF93DF93209162
S11303603603309137038091340390913503281775
S113037039076CF48B01EB01040F151FC017D1076B
S113038041F089910E9480018111F8CF03C081E07E
S113039001C081E0DF91CF911F910F910895EF92F9
S11303A0FF920F931F93CF93DF93EC011B818E81F8
S11303B09F810E947501123071F01330E1F0113009
S11303C009F055C042E150E06CE172E081E00E9426
S11303D0AB0181E051C049E050E06EE272E080E0A0
S11303E00E94AB0141E650E067E372E080E00E94C6
S11303F0AB0181E041C0CA81CC2381F1C430C8F58E
S113040020E1C29FF0011124E852FE4FD0818D2FCC
S1130410880F8E5F0E94800183E00E948001DD23AB
S113042051F130E1C39FC00111248C0107521E4FCA
S1130430D1508D0F911DFC01E652FE4F7F01F80152
S113044081918F010E948001C82F80E00E94800169
S11304508C2391F00E151F0591F70EC044E050E077
S113046068E172E080E00E94AB0181E005C080E0B9
S113047003C080E001C081E0DF91CF911F910F9113
S1130480FF90EF900895AF92BF92DF92EF92FF92A8
S11304900F931F93CF93DF938C01EB011C161D0662
S11304A02CF50F2EF8EEAF2EB12CF02D0F2EFBEF06
S11304B0DF2EF02DC134D1053CF0C054D10968942D
S11304C0EE24E6F8F12C01C07E010E94680181113E
S11304D00FC06E2DC8010E944E01F501D0820E0D91
S11304E01F1D1C161D0634F381E003C081E001C00A
S11304F080E0DF91CF911F910F91FF90EF90DF90FB
S1130500BF90AF900895FC012481211164C09181B2
S11305108081813A59F4913209F063C047E050E098
S11305206EE171E080E00E94AB015BC0813209F0B2
S113053054C0903241F467E070E08EE191E00E9493
S1130540430281E00895933261F4838190E0982F0F
S113055088272281822B909339038093380381E08A
S113056008959232E1F58281EEE1F1E087838081A2
S11305709181A281B38180349843A105B105D1F55D
S11305808091250180FF2FC035C08091250180FF17
S11305903FC080911E0190911F01A0912001B09154
S11305A02101803B9440A105B10509F064C080910C
S11305B0250180FF46C05FC0A895E0E6F0E0808199
S11305C08861808380913A0380831092FF0A10929D
S11305D0FE0A81E0089580E0089580E0089581E0B6
S11305E0089580E00895269A95B180E4892785B915
S11305F081E0089580911E0190911F01A091200136
S1130600B0912101803B9440A105B10511F6BDCF05
S113061087E797E79093FF0A8093FE0A9093010877
S1130620809300088091600080933A039BE088E106
S11306300FB6F894A895809360000FBE9093600065
S1130640A8CF87E797E79093FF0A8093FE0A9093D9
S11306500108809300088091600080933A039BE036
S113066088E10FB6F894A895809360000FBE90932C
S1130670600081E008958091FE0A9091FF0A873717
S1130680974709F499CF81E00895FF920F931F9340
S1130690CF93DF938093E90030E0A1EFB0E0C8EEA0
S11306A0D0E01AE3FF24F39400E01416150614F0C6
S11306B0332361F1403451052CF5842F2FEF240F9F
S11306C04427882359F0FB01822F91919C938150F8
S11306D0E0F7822F90E00196680F791F332319F019
S11306E01883302FE2CF888185FD07C018833F2D02
S11306F041155105D1F2302FD8CF41155105A9F636
S11307001883D3CF405451092FE3DDCF81E0DF912B
S1130710CF911F910F91FF9008954F925F926F9226
S11307207F928F929F92AF92BF92CF92DF92EF927D
S1130730FF920F931F93CF93DF93CDB7DEB7CC52C5
S1130740D2400FB6F894DEBF0FBECDBFFE01B09607
S11307508DE0DF011D928A95E9F785E593E5A2E432
S1130760B3E588A399A3AAA3BBA384E00E94A0092C
S11307706FE1CE0101960E944E0188890E948B0987
S11307808BE68093E80089819A81AB81BC818535B1
S11307909345A244B34429F087E391E00E9475098C
S11307A083C28D819E81AF81B8858CA39DA3AEA3A6
S11307B0BFA3E8898E2F90E08B32910508F051C2D7
S11307C0FC01EA5AFF4F0C94AF098989811129C0B1
S11307D08BE391E00E94750985E08093E9000E9413
S11307E05C014C8950E06DEA71E085E00E944503AC
S11307F02C8989859A85AB85BC85821B9109A109C1
S1130800B10988A799A7AAA7BBA71CA60E945C0147
S11308104DE050E0BE01605E7F4F85E00E944503DD
S113082043C285E08093E90089859A85AB85BC85C0
S113083088A799A7AAA7BBA781E08CA70E945C01FF
S11308404DE050E0BE01605E7F4F85E00E944503AD
S11308501CA60E945C014DE050E0BE01605E7F4F2B
S113086085E00E94450320C280E491E00E9475095E
S113087085E08093E9000E945C0148E050E064E078
S113088071E085E00E9445032C8989859A85AB85B2
S1130890BC85821B9109A109B10988A799A7AAA7B8
S11308A0BBA71CA60E945C014DE050E0BE01605E47
S11308B07F4F85E00E944503F7C185E08093E900FE
S11308C018A619A61AA61BA61CA60E945C014DE038
S11308D050E0BE01605E7F4F85E00E944503E4C1A5
S11308E085E491E00E94750985E08093E9000E9407
S11308F05C014CE050E061EA71E085E00E94450350
S11309002C8989859A85AB85BC85821B9109A109AF
S1130910B10988A799A7AAA7BBA71CA60E945C0136
S11309204DE050E0BE01605E7F4F85E00E944503CC
S1130930BBC18AE491E00E94750985E08093E900D7
S11309400E945C0144E050E060E071E085E00E94B8
S113095045032C8989859A85AB85BC85821B9109C1
S1130960A109B10988A799A7AAA7BBA71CA60E9499
S11309705C014DE050E0BE01605E7F4F85E00E9467
S1130980450392C18FE491E00E94750985E080934C
S1130990E90089859A85AB85BC8588A799A7AAA70C
S11309A0BBA71CA60E945C014DE050E0BE01605E46
S11309B07F4F85E00E94450377C184E591E00E9462
S11309C0750985E08093E9008C88912C982C882403
S11309D08D89882A092C000CAA08BB084F88512C41
S11309E0542C4424888D482A141415040CF04EC049
S11309F0052C000C66087708480C591C6A1C7B1CE3
S1130A007E01F3EDEF1AFDEFFF0A20E0B501A4012A
S1130A1081E10E94C607811147C12C9800E010E1D2
S1130A200E94CD008E3F29F001501109C9F72C9A7C
S1130A303BC16E012DE2C20ED11C86010E94CD0085
S1130A40D8018D938D01AE15BF05C1F70E94CD006D
S1130A500E94CD000E94CD002C9A0E945C0140E4CB
S1130A6050E0B60185E00E944503B0E4CB0ED11CF2
S1130A70EC14FD0491F7EFEF8E1A9E0AAE0ABE0A3B
S1130A8084149504A604B70409F0BFCF8AE38093C5
S1130A90E8002C8989859A85AB85BC85821B9109E0
S1130AA0A109B10988A799A7AAA7BBA71CA60E9458
S1130AB05C014DE050E0BE01605E7F4F85E00E9426
S1130AC0450389E591E00E947509EEC08EE591E049
S1130AD00E94750984E08093E9008C88912C982CFD
S1130AE088248D89882A092C000CAA08BB0883E66F
S1130AF091E00E9475098E01035D1F4F7E01F3EDA5
S1130B00EF1AFDEFFF0A680189E691E00E9475097A
S1130B100E94620160E4C6010E944E018FE691E0EA
S1130B200E94750920E4C20ED11CEC14FD0461F787
S1130B3020E0B501A40188E10E94C607882329F0BA
S1130B4085E791E00E947509AFC02C988EEF0E9452
S1130B50C000D8018D918D010E94C000E016F106FD
S1130B60C1F78FEF0E94C0008FEF0E94C0000E9467
S1130B70CD008F71853031F02C9A8AE791E00E9484
S1130B80750992C000E010E00E94CD00811109C0F7
S1130B900F5F1F4FC9F72C9A8FE791E00E947509E8
S1130BA083C02C9A8FEF0E94C0002C9801C08C0146
S1130BB00E94CD0081110BC0C80101960F3F1F4F49
S1130BC0B1F72C9A84E891E00E9475096DC02C9AC3
S1130BD085E08093E9002C8989859A85AB85BC855D
S1130BE0821B9109A109B10988A799A7AAA7BBA744
S1130BF01CA60E945C014DE050E0BE01605E7F4F88
S1130C0085E00E94450389E891E00E9475094CC083
S1130C108EE891E00E94750985E08093E9000E94C6
S1130C205C0142E150E06CE071E085E00E94450324
S1130C302C8989859A85AB85BC85821B9109A1097C
S1130C40B10988A799A7AAA7BBA71CA60E945C0103
S1130C504DE050E0BE01605E7F4F85E00E94450399
S1130C6023C083E991E00E94750989859A85AB8543
S1130C70BC8588A799A7AAA7BBA781E08CA70E94D7
S1130C805C014DE050E0BE01605E7F4F85E00E9454
S1130C9045031CA60E945C014DE050E0BE01605E6D
S1130CA07F4F85E00E944503C45DDD4F0FB6F89485
S1130CB0DEBF0FBECDBFDF91CF911F910F91FF908B
S1130CC0EF90DF90CF90BF90AF909F908F907F90E8
S1130CD06F905F904F9008951F920F920FB60F92EE
S1130CE01124EF92FF920F931F932F933F934F93EF
S1130CF05F936F937F938F939F93AF93BF93EF9380
S1130D00FF93CF93DF93CDB7DEB72897DEBFCDBF78
S1130D1084E08093E9008091E80082FF03C00E9490
S1130D208D03A8C01092E9000E940701882309F4EA
S1130D30A1C068E0CE0101960E944E0182EF80932B
S1130D40E800198111231CF40E945C0103C08EEF9A
S1130D508093E800812F807609F078C04B812C8144
S1130D60842F90E0BC01722BEA818E2F90E08A30B0
S1130D70910508F075C0FC01EF57FF4F0C94AF09C3
S1130D80103839F480913E03E1EFF0E08083108263
S1130D9068C0E1EFF0E01082108263C0111161C0FD
S1130DA06130710509F05DC0EBE3F3E080818D7F74
S1130DB0808357C0111155C06130710509F051C0CD
S1130DC0EBE3F3E08081826080834BC0E8EEF0E0E7
S1130DD0808180FFFDCF40684093E30042C0CE0194
S1130DE001960E94CF01082F3CC080913D0380935F
S1130DF0F10037C01F71B9F561EC11E00F2EF0EF6F
S1130E00EF2EF12CF02D42E3812F0E940D01882357
S1130E1079F0F70180818460808388E991E00E9401
S1130E207509812F0E948B098BE991E00E94750955
S1130E301F5FE12FF0E0EF52FE4F60816111E3CFBD
S1130E401092E90081E080933D030BC08F81988567
S1130E500E947501CE0101960E948302082F01C0F1
S1130E6000E0011104C081E28093EB0003C08EEF27
S1130E708093E80028960FB6F894DEBF0FBECDBF6E
S1130E80DF91CF91FF91EF91BF91AF919F918F919E
S1130E907F916F915F914F913F912F911F910F918E
S1130EA0FF90EF900F900FBE0F901F901895209118
S1130EB02501222329F0AB01BC0183E00E944503F4
S1130EC081E00895CF93DF93CDB7DEB760970FB677
S1130ED0F894DEBF0FBECDBF90E1E7E2F1E0DE01A2
S1130EE0119601900D929A95E1F7A6E5B1E0982F3D
S1130EF09F70E1E0F0E0EC0FFD1FE90FF11D908120
S1130F0011969C93119782958F70E1E0F0E0EC0FBD
S1130F10FD1FE80FF11D80818C9362E070E0CD012C
S1130F200E94570760960FB6F894DEBF0FBECDBF80
S1130F30DF91CF91089581E080933D0308950E944D
S1130F40590988E992E00E9475098AEE0E948B098A
S1130F5089E391E00E9475090E94B8000E94D900BB
S1130F600E945008C82F82EA92E00E9475098C2FD3
S1130F700E948B098C2F0E948B0989E391E00E94C7
S1130F807509FFCF81E0809341030895CF92DF92EA
S1130F90EF92FF920F931F93CF93DF93182F6A0161
S1130FA07B01022F80914403811115C08FEE810FC4
S1130FB0823040F088EE810F823020F080EE810F85
S1130FC0823048F40B2EB9E0CC0CDD1CEE1CFF1C67
S1130FD0BA95D1F7B02D2C98812F80640E94C0005F
S1130FE08F2D0E94C0008E2D0E94C0008D2D0E9466
S1130FF0C0008C2D0E94C000183021F487E80E94A4
S1131000C00003C085E90E94C000C0E00E94CD007A
S1131010D82F8F3F19F4C150C9F738C0183011F0D8
S11310201A3309F567E070E08BEA92E00E945707F3
S11310300E94CD000E9462070E94CD000E946207B8
S11310400E94CD000E9462070E94CD000E946207A8
S113105061E070E089E391E00E9457070E94CD00AF
S1131060011104C004C0882361F006C02C9AD11178
S11310700DC0109226010AC00E94CD000111F6CFC6
S113108005C00E94CD000023A1F3F0CF8D2FDF9186
S1131090CF911F910F91FF90EF90DF90CF90089523
S11310A00F931F93CF93DF9300D01F92CDB7DEB77A
S11310B08FE99FE00197F1F700C000002C9A1AE035
S11310C08FEF0E94C0001150D9F72C9821E040E026
S11310D050E0BA0180E00E94C60720E230E03B8382
S11310E02A8310C021E040E050E0BA0180E00E9471
S11310F0C6072A813B81215031093B832A83232B54
S113110009F4ABC0813071F72C9A8FEF0E94C000B4
S11311108FEF0E94C0006CE070E083EB92E00E94CD
S1131120570721E04AEA51E060E070E088E00E945D
S1131130C607082F8EEF90E09B838A831DC06CE066
S113114070E083EB92E00E94570721E04AEA51E005
S113115060E070E088E00E94C607082F2A813B8186
S1131160215031093B832A83232B31F481E080937E
S1131170430331E0398304C0013009F782E08983F5
S113118061E070E08DE193E00E945707802F0E9498
S1131190620761E070E080EC92E00E94570721E072
S11311A040E050E0BA0187E30E94C6072EEF30E02A
S11311B03B832A8310C021E040E050E0BA0187E37A
S11311C00E94C6072A813B81215031093B832A832F
S11311D0232B09F444C0813071F751C021E040E071
S11311E050E060E070E489E20E94C6072A813B81F6
S11311F0215031093B832A83232B99F1813071F7E4
S1131200109244033981323009F046C02CC021E0E9
S113121040E050E0BA018AE30E94C6072A813B817C
S1131220215031093B832A83232B49F41092430331
S113123063E070E082EC92E00E94570702C08111E3
S1131240E6CF80914403813021F482E0809343030C
S113125023C083E0809343031FC011E01DC012E04C
S11312601BC013E019C021E040E050E0BA018AE35A
S11312700E94C6072EEF30E03B832A83E0CF21E0B3
S113128040E050E060E070E489E20E94C6072EEF7F
S113129030E03B832A83B2CF812F0F900F900F90C1
S11312A0DF91CF911F910F91089581E080934703BF
S11312B0089584B1806E84B985B1806A85B92E9809
S11312C008952F9898E0882314F42D9A01C02D983E
S11312D02E9A00000000880F2E980000915099F774
S11312E0000085B1806A85B908950F931F93CF9349
S11312F0DF93EC018C0101501F4F8881882331F06A
S113130021960E946109C017D107B9F7DF91CF91E7
S11313101F910F910895CF93C82FE82FE295EF7096
S1131320F0E0EE5DFC4F80810E946109CF70EC2FEC
S1131330F0E0EE5DFC4F80810E946109CF91089539
S1131340CF93C82F87E193E00E9475098C2F0E94E8
S11313508B098FE193E00E947509CF910895EE0FF8
S1111360FF1F0590F491E02D0994F894FFCF3F
S113136E03000000003FFFFF0000020070000500B4
S113137E000000000000000000000000000000E17A
S113138E0000000000000130313233343536373876
S113139E3941424344454625323B00403131300009
S11313AE403132300040313630004031343000406C
S11313BE313530004032303000403232320040336A
S11313CE3030004033303031004033303032004062
S11313DE333030330040333034004033303100404A
S11313EE3330320040333033004033333300403136
S11313FE3330004034303400455000696E69743B1C
S113140E000000000800F238000200020000800212
S113141E021F00000041546D6567612030562D5542
S113142E53422053442D41646170746572303030E0
S113143E3800C1808180810003000000000000009C
S113144E0000000000000000056461726D61000080
S113145E00000000000000000474657374000000B6
S113146E0000000000000000034D53440000000083
S113147E0000000000000000040309041201000231
S113148EEF0201401F1FF1F10001010203010902E5
S113149E6A00030100A0FA080B0002020200000910
S11314AE04000001020200000524001001052401BD
S11314BE0101042402060524060001070581031018
S11314CE004009040100020A000000070502024060
S11314DE000007058302400000080B0201080650B5
S11314EE0009040200020806500007050402400029
S11314FE00070585024000005B4156524442475D99
S113150E2D00534443415244533A0049462D6172CF
S113151E673A0053454E445F49465F434F4E44007D
S113152E5D0052415200534554555028006465766F
S113153E2D3E686F73743B2000686F73742D3E6488
S113154E65763B200056454E444F523B2000494E93
S113155E544552464143453B20002E2E2E3B20003F
S113156E525B005D3B2000496E6465785B006C65E0
S113157E6E5B005D20290026492D5553425B005DAC
S113158E3B003031323334353637383941424344F7
S107159E45460000BA
S9030000FC
